{
  "_format": "hh-sol-artifact-1",
  "contractName": "DualClaim",
  "sourceName": "contracts/DualClaim.sol",
  "abi": [
    {
      "inputs": [
        {
          "internalType": "address",
          "name": "_usdc",
          "type": "address"
        }
      ],
      "stateMutability": "nonpayable",
      "type": "constructor"
    },
    {
      "anonymous": false,
      "inputs": [
        {
          "indexed": true,
          "internalType": "bytes32",
          "name": "dropId",
          "type": "bytes32"
        },
        {
          "indexed": true,
          "internalType": "address",
          "name": "claimer",
          "type": "address"
        },
        {
          "indexed": false,
          "internalType": "uint256",
          "name": "amount",
          "type": "uint256"
        }
      ],
      "name": "Claimed",
      "type": "event"
    },
    {
      "anonymous": false,
      "inputs": [
        {
          "indexed": true,
          "internalType": "bytes32",
          "name": "dropId",
          "type": "bytes32"
        },
        {
          "indexed": true,
          "internalType": "address",
          "name": "creator",
          "type": "address"
        },
        {
          "indexed": false,
          "internalType": "string",
          "name": "token",
          "type": "string"
        },
        {
          "indexed": false,
          "internalType": "uint256",
          "name": "totalAmount",
          "type": "uint256"
        },
        {
          "indexed": false,
          "internalType": "uint256",
          "name": "numRecipients",
          "type": "uint256"
        }
      ],
      "name": "DropCreated",
      "type": "event"
    },
    {
      "inputs": [
        {
          "internalType": "bytes32",
          "name": "dropId",
          "type": "bytes32"
        }
      ],
      "name": "claim",
      "outputs": [],
      "stateMutability": "nonpayable",
      "type": "function"
    },
    {
      "inputs": [
        {
          "internalType": "string",
          "name": "token",
          "type": "string"
        },
        {
          "internalType": "uint256",
          "name": "totalAmount",
          "type": "uint256"
        },
        {
          "internalType": "uint256",
          "name": "numRecipients",
          "type": "uint256"
        }
      ],
      "name": "createDrop",
      "outputs": [
        {
          "internalType": "bytes32",
          "name": "",
          "type": "bytes32"
        }
      ],
      "stateMutability": "payable",
      "type": "function"
    },
    {
      "inputs": [
        {
          "internalType": "uint256",
          "name": "avaxAmount",
          "type": "uint256"
        },
        {
          "internalType": "uint256",
          "name": "usdcAmount",
          "type": "uint256"
        },
        {
          "internalType": "uint256",
          "name": "numRecipients",
          "type": "uint256"
        }
      ],
      "name": "createDualDrop",
      "outputs": [
        {
          "internalType": "bytes32",
          "name": "",
          "type": "bytes32"
        }
      ],
      "stateMutability": "payable",
      "type": "function"
    },
    {
      "inputs": [
        {
          "internalType": "bytes32",
          "name": "",
          "type": "bytes32"
        }
      ],
      "name": "drops",
      "outputs": [
        {
          "internalType": "address",
          "name": "creator",
          "type": "address"
        },
        {
          "internalType": "string",
          "name": "token",
          "type": "string"
        },
        {
          "internalType": "uint256",
          "name": "totalAmount",
          "type": "uint256"
        },
        {
          "internalType": "uint256",
          "name": "numRecipients",
          "type": "uint256"
        },
        {
          "internalType": "uint256",
          "name": "claimedCount",
          "type": "uint256"
        },
        {
          "internalType": "uint256",
          "name": "amountPerRecipient",
          "type": "uint256"
        }
      ],
      "stateMutability": "view",
      "type": "function"
    },
    {
      "inputs": [],
      "name": "owner",
      "outputs": [
        {
          "internalType": "address",
          "name": "",
          "type": "address"
        }
      ],
      "stateMutability": "view",
      "type": "function"
    },
    {
      "inputs": [],
      "name": "usdc",
      "outputs": [
        {
          "internalType": "contract IERC20",
          "name": "",
          "type": "address"
        }
      ],
      "stateMutability": "view",
      "type": "function"
    },
    {
      "inputs": [],
      "name": "withdraw",
      "outputs": [],
      "stateMutability": "nonpayable",
      "type": "function"
    }
  ],
  "bytecode": "0x60806040523480156200001157600080fd5b506040516200222138038062002221833981810160405281019062000037919062000129565b336000806101000a81548173ffffffffffffffffffffffffffffffffffffffff021916908373ffffffffffffffffffffffffffffffffffffffff16021790555080600160006101000a81548173ffffffffffffffffffffffffffffffffffffffff021916908373ffffffffffffffffffffffffffffffffffffffff160217905550506200015b565b600080fd5b600073ffffffffffffffffffffffffffffffffffffffff82169050919050565b6000620000f182620000c4565b9050919050565b6200010381620000e4565b81146200010f57600080fd5b50565b6000815190506200012381620000f8565b92915050565b600060208284031215620001425762000141620000bf565b5b6000620001528482850162000112565b91505092915050565b6120b6806200016b6000396000f3fe6080604052600436106100705760003560e01c80638da5cb5b1161004e5780638da5cb5b146100f9578063aaaae6aa14610124578063bb401abd14610154578063bd66528a1461018457610070565b80633ccfd60b146100755780633e413bee1461008c57806349af2001146100b7575b600080fd5b34801561008157600080fd5b5061008a6101ad565b005b34801561009857600080fd5b506100a16102a4565b6040516100ae9190610fd2565b60405180910390f35b3480156100c357600080fd5b506100de60048036038101906100d99190611037565b6102ca565b6040516100f09695949392919061112e565b60405180910390f35b34801561010557600080fd5b5061010e6103ae565b60405161011b9190611196565b60405180910390f35b61013e60048036038101906101399190611312565b6103d2565b60405161014b9190611390565b60405180910390f35b61016e600480360381019061016991906113ab565b6106fd565b60405161017b9190611390565b60405180910390f35b34801561019057600080fd5b506101ab60048036038101906101a69190611037565b6109cc565b005b60008054906101000a900473ffffffffffffffffffffffffffffffffffffffff1673ffffffffffffffffffffffffffffffffffffffff163373ffffffffffffffffffffffffffffffffffffffff161461023b576040517f08c379a00000000000000000000000000000000000000000000000000000000081526004016102329061144a565b60405180910390fd5b60008054906101000a900473ffffffffffffffffffffffffffffffffffffffff1673ffffffffffffffffffffffffffffffffffffffff166108fc479081150290604051600060405180830381858888f193505050501580156102a1573d6000803e3d6000fd5b50565b600160009054906101000a900473ffffffffffffffffffffffffffffffffffffffff1681565b60026020528060005260406000206000915090508060000160009054906101000a900473ffffffffffffffffffffffffffffffffffffffff169080600101805461031390611499565b80601f016020809104026020016040519081016040528092919081815260200182805461033f90611499565b801561038c5780601f106103615761010080835404028352916020019161038c565b820191906000526020600020905b81548152906001019060200180831161036f57829003601f168201915b5050505050908060020154908060030154908060040154908060050154905086565b60008054906101000a900473ffffffffffffffffffffffffffffffffffffffff1681565b6000808211610416576040517f08c379a000000000000000000000000000000000000000000000000000000000815260040161040d90611516565b60405180910390fd5b7f49f18ed70c3220abb735efdc7fce309e384d008d4bc14c846dcce9e31050e29b84805190602001200361048b57823414610486576040517f08c379a000000000000000000000000000000000000000000000000000000000815260040161047d90611582565b60405180910390fd5b6105db565b7fd6aca1be9729c13d677335161321649cccae6a591554772516700f986f942eaa84805190602001200361059f57600160009054906101000a900473ffffffffffffffffffffffffffffffffffffffff1673ffffffffffffffffffffffffffffffffffffffff166323b872dd3330866040518463ffffffff1660e01b8152600401610518939291906115a2565b6020604051808303816000875af1158015610537573d6000803e3d6000fd5b505050506040513d601f19601f8201168201806040525081019061055b9190611611565b61059a576040517f08c379a00000000000000000000000000000000000000000000000000000000081526004016105919061168a565b60405180910390fd5b6105da565b6040517f08c379a00000000000000000000000000000000000000000000000000000000081526004016105d1906116f6565b60405180910390fd5b5b6000334286866040516020016105f494939291906117bb565b6040516020818303038152906040528051906020012090506000600260008381526020019081526020016000209050338160000160006101000a81548173ffffffffffffffffffffffffffffffffffffffff021916908373ffffffffffffffffffffffffffffffffffffffff1602179055508581600101908161067791906119a7565b5084816002018190555083816003018190555083856106969190611ad7565b81600501819055503373ffffffffffffffffffffffffffffffffffffffff16827f9fe782190cfe04ba06e00b483bfdebd7738e146c11306995812cdf7687d2a8b58888886040516106e993929190611b08565b60405180910390a381925050509392505050565b6000808211610741576040517f08c379a000000000000000000000000000000000000000000000000000000000815260040161073890611516565b60405180910390fd5b833414610783576040517f08c379a000000000000000000000000000000000000000000000000000000000815260040161077a90611b92565b60405180910390fd5b600160009054906101000a900473ffffffffffffffffffffffffffffffffffffffff1673ffffffffffffffffffffffffffffffffffffffff166323b872dd3330866040518463ffffffff1660e01b81526004016107e2939291906115a2565b6020604051808303816000875af1158015610801573d6000803e3d6000fd5b505050506040513d601f19601f820116820180604052508101906108259190611611565b610864576040517f08c379a000000000000000000000000000000000000000000000000000000000815260040161085b9061168a565b60405180910390fd5b60003342868660405160200161087d9493929190611bfe565b6040516020818303038152906040528051906020012090506000600260008381526020019081526020016000209050338160000160006101000a81548173ffffffffffffffffffffffffffffffffffffffff021916908373ffffffffffffffffffffffffffffffffffffffff1602179055506040518060400160405280600481526020017f4455414c0000000000000000000000000000000000000000000000000000000081525081600101908161093591906119a7565b5084866109429190611c57565b81600201819055508381600301819055508381600201546109639190611ad7565b81600501819055503373ffffffffffffffffffffffffffffffffffffffff16827f9fe782190cfe04ba06e00b483bfdebd7738e146c11306995812cdf7687d2a8b58360020154876040516109b8929190611cae565b60405180910390a381925050509392505050565b6000600260008381526020019081526020016000209050600073ffffffffffffffffffffffffffffffffffffffff168160000160009054906101000a900473ffffffffffffffffffffffffffffffffffffffff1673ffffffffffffffffffffffffffffffffffffffff1603610a76576040517f08c379a0000000000000000000000000000000000000000000000000000000008152600401610a6d90611d36565b60405180910390fd5b8060060160003373ffffffffffffffffffffffffffffffffffffffff1673ffffffffffffffffffffffffffffffffffffffff16815260200190815260200160002060009054906101000a900460ff1615610b05576040517f08c379a0000000000000000000000000000000000000000000000000000000008152600401610afc90611da2565b60405180910390fd5b8060030154816004015410610b4f576040517f08c379a0000000000000000000000000000000000000000000000000000000008152600401610b4690611e0e565b60405180910390fd5b60018160060160003373ffffffffffffffffffffffffffffffffffffffff1673ffffffffffffffffffffffffffffffffffffffff16815260200190815260200160002060006101000a81548160ff021916908315150217905550806004016000815480929190610bbe90611e2e565b91905055506000816005015490507f49f18ed70c3220abb735efdc7fce309e384d008d4bc14c846dcce9e31050e29b82600101604051610bfe9190611f19565b604051809103902003610c57573373ffffffffffffffffffffffffffffffffffffffff166108fc829081150290604051600060405180830381858888f19350505050158015610c51573d6000803e3d6000fd5b50610eff565b7fd6aca1be9729c13d677335161321649cccae6a591554772516700f986f942eaa82600101604051610c899190611f19565b604051809103902003610d7a57600160009054906101000a900473ffffffffffffffffffffffffffffffffffffffff1673ffffffffffffffffffffffffffffffffffffffff1663a9059cbb33836040518363ffffffff1660e01b8152600401610cf3929190611f30565b6020604051808303816000875af1158015610d12573d6000803e3d6000fd5b505050506040513d601f19601f82011682018060405250810190610d369190611611565b610d75576040517f08c379a0000000000000000000000000000000000000000000000000000000008152600401610d6c90611fa5565b60405180910390fd5b610efe565b7f5a72d9c812874f07bdb2aece5714f45796e0ba589f80eb51dfdb74ee5757705082600101604051610dac9190611f19565b604051809103902003610efd576000600282610dc89190611ad7565b90503373ffffffffffffffffffffffffffffffffffffffff166108fc829081150290604051600060405180830381858888f19350505050158015610e10573d6000803e3d6000fd5b50600160009054906101000a900473ffffffffffffffffffffffffffffffffffffffff1673ffffffffffffffffffffffffffffffffffffffff1663a9059cbb338385610e5c9190611fc5565b6040518363ffffffff1660e01b8152600401610e79929190611f30565b6020604051808303816000875af1158015610e98573d6000803e3d6000fd5b505050506040513d601f19601f82011682018060405250810190610ebc9190611611565b610efb576040517f08c379a0000000000000000000000000000000000000000000000000000000008152600401610ef290612045565b60405180910390fd5b505b5b5b3373ffffffffffffffffffffffffffffffffffffffff16837f0508a8b4117d9a7b3d8f5895f6413e61b4f9a2df35afbfb41e78d0ecfff1843f83604051610f469190612065565b60405180910390a3505050565b600073ffffffffffffffffffffffffffffffffffffffff82169050919050565b6000819050919050565b6000610f98610f93610f8e84610f53565b610f73565b610f53565b9050919050565b6000610faa82610f7d565b9050919050565b6000610fbc82610f9f565b9050919050565b610fcc81610fb1565b82525050565b6000602082019050610fe76000830184610fc3565b92915050565b6000604051905090565b600080fd5b600080fd5b6000819050919050565b61101481611001565b811461101f57600080fd5b50565b6000813590506110318161100b565b92915050565b60006020828403121561104d5761104c610ff7565b5b600061105b84828501611022565b91505092915050565b600061106f82610f53565b9050919050565b61107f81611064565b82525050565b600081519050919050565b600082825260208201905092915050565b60005b838110156110bf5780820151818401526020810190506110a4565b60008484015250505050565b6000601f19601f8301169050919050565b60006110e782611085565b6110f18185611090565b93506111018185602086016110a1565b61110a816110cb565b840191505092915050565b6000819050919050565b61112881611115565b82525050565b600060c0820190506111436000830189611076565b818103602083015261115581886110dc565b9050611164604083018761111f565b611171606083018661111f565b61117e608083018561111f565b61118b60a083018461111f565b979650505050505050565b60006020820190506111ab6000830184611076565b92915050565b600080fd5b600080fd5b7f4e487b7100000000000000000000000000000000000000000000000000000000600052604160045260246000fd5b6111f3826110cb565b810181811067ffffffffffffffff82111715611212576112116111bb565b5b80604052505050565b6000611225610fed565b905061123182826111ea565b919050565b600067ffffffffffffffff821115611251576112506111bb565b5b61125a826110cb565b9050602081019050919050565b82818337600083830152505050565b600061128961128484611236565b61121b565b9050828152602081018484840111156112a5576112a46111b6565b5b6112b0848285611267565b509392505050565b600082601f8301126112cd576112cc6111b1565b5b81356112dd848260208601611276565b91505092915050565b6112ef81611115565b81146112fa57600080fd5b50565b60008135905061130c816112e6565b92915050565b60008060006060848603121561132b5761132a610ff7565b5b600084013567ffffffffffffffff81111561134957611348610ffc565b5b611355868287016112b8565b9350506020611366868287016112fd565b9250506040611377868287016112fd565b9150509250925092565b61138a81611001565b82525050565b60006020820190506113a56000830184611381565b92915050565b6000806000606084860312156113c4576113c3610ff7565b5b60006113d2868287016112fd565b93505060206113e3868287016112fd565b92505060406113f4868287016112fd565b9150509250925092565b7f4e6f74206f776e65720000000000000000000000000000000000000000000000600082015250565b6000611434600983611090565b915061143f826113fe565b602082019050919050565b6000602082019050818103600083015261146381611427565b9050919050565b7f4e487b7100000000000000000000000000000000000000000000000000000000600052602260045260246000fd5b600060028204905060018216806114b157607f821691505b6020821081036114c4576114c361146a565b5b50919050565b7f496e76616c696420726563697069656e7420636f756e74000000000000000000600082015250565b6000611500601783611090565b915061150b826114ca565b602082019050919050565b6000602082019050818103600083015261152f816114f3565b9050919050565b7f496e636f7272656374204156415820616d6f756e740000000000000000000000600082015250565b600061156c601583611090565b915061157782611536565b602082019050919050565b6000602082019050818103600083015261159b8161155f565b9050919050565b60006060820190506115b76000830186611076565b6115c46020830185611076565b6115d1604083018461111f565b949350505050565b60008115159050919050565b6115ee816115d9565b81146115f957600080fd5b50565b60008151905061160b816115e5565b92915050565b60006020828403121561162757611626610ff7565b5b6000611635848285016115fc565b91505092915050565b7f55534443207472616e73666572206661696c6564000000000000000000000000600082015250565b6000611674601483611090565b915061167f8261163e565b602082019050919050565b600060208201905081810360008301526116a381611667565b9050919050565b7f556e737570706f7274656420746f6b656e000000000000000000000000000000600082015250565b60006116e0601183611090565b91506116eb826116aa565b602082019050919050565b6000602082019050818103600083015261170f816116d3565b9050919050565b60008160601b9050919050565b600061172e82611716565b9050919050565b600061174082611723565b9050919050565b61175861175382611064565b611735565b82525050565b6000819050919050565b61177961177482611115565b61175e565b82525050565b600081905092915050565b600061179582611085565b61179f818561177f565b93506117af8185602086016110a1565b80840191505092915050565b60006117c78287611747565b6014820191506117d78286611768565b6020820191506117e7828561178a565b91506117f38284611768565b60208201915081905095945050505050565b60008190508160005260206000209050919050565b60006020601f8301049050919050565b600082821b905092915050565b6000600883026118677fffffffffffffffffffffffffffffffffffffffffffffffffffffffffffffffff8261182a565b611871868361182a565b95508019841693508086168417925050509392505050565b60006118a461189f61189a84611115565b610f73565b611115565b9050919050565b6000819050919050565b6118be83611889565b6118d26118ca826118ab565b848454611837565b825550505050565b600090565b6118e76118da565b6118f28184846118b5565b505050565b5b818110156119165761190b6000826118df565b6001810190506118f8565b5050565b601f82111561195b5761192c81611805565b6119358461181a565b81016020851015611944578190505b6119586119508561181a565b8301826118f7565b50505b505050565b600082821c905092915050565b600061197e60001984600802611960565b1980831691505092915050565b6000611997838361196d565b9150826002028217905092915050565b6119b082611085565b67ffffffffffffffff8111156119c9576119c86111bb565b5b6119d38254611499565b6119de82828561191a565b600060209050601f831160018114611a1157600084156119ff578287015190505b611a09858261198b565b865550611a71565b601f198416611a1f86611805565b60005b82811015611a4757848901518255600182019150602085019450602081019050611a22565b86831015611a645784890151611a60601f89168261196d565b8355505b6001600288020188555050505b505050505050565b7f4e487b7100000000000000000000000000000000000000000000000000000000600052601260045260246000fd5b7f4e487b7100000000000000000000000000000000000000000000000000000000600052601160045260246000fd5b6000611ae282611115565b9150611aed83611115565b925082611afd57611afc611a79565b5b828204905092915050565b60006060820190508181036000830152611b2281866110dc565b9050611b31602083018561111f565b611b3e604083018461111f565b949350505050565b7f4156415820616d6f756e74206d69736d61746368000000000000000000000000600082015250565b6000611b7c601483611090565b9150611b8782611b46565b602082019050919050565b60006020820190508181036000830152611bab81611b6f565b9050919050565b7f4455414c00000000000000000000000000000000000000000000000000000000600082015250565b6000611be860048361177f565b9150611bf382611bb2565b600482019050919050565b6000611c0a8287611747565b601482019150611c1a8286611768565b602082019150611c2982611bdb565b9150611c358285611768565b602082019150611c458284611768565b60208201915081905095945050505050565b6000611c6282611115565b9150611c6d83611115565b9250828201905080821115611c8557611c84611aa8565b5b92915050565b6000611c98600483611090565b9150611ca382611bb2565b602082019050919050565b60006060820190508181036000830152611cc781611c8b565b9050611cd6602083018561111f565b611ce3604083018461111f565b9392505050565b7f44726f70206e6f7420666f756e64000000000000000000000000000000000000600082015250565b6000611d20600e83611090565b9150611d2b82611cea565b602082019050919050565b60006020820190508181036000830152611d4f81611d13565b9050919050565b7f416c726561647920636c61696d65640000000000000000000000000000000000600082015250565b6000611d8c600f83611090565b9150611d9782611d56565b602082019050919050565b60006020820190508181036000830152611dbb81611d7f565b9050919050565b7f416c6c20636c61696d6564000000000000000000000000000000000000000000600082015250565b6000611df8600b83611090565b9150611e0382611dc2565b602082019050919050565b60006020820190508181036000830152611e2781611deb565b9050919050565b6000611e3982611115565b91507fffffffffffffffffffffffffffffffffffffffffffffffffffffffffffffffff8203611e6b57611e6a611aa8565b5b600182019050919050565b600081905092915050565b60008190508160005260206000209050919050565b60008154611ea381611499565b611ead8186611e76565b94506001821660008114611ec85760018114611edd57611f10565b60ff1983168652811515820286019350611f10565b611ee685611e81565b60005b83811015611f0857815481890152600182019150602081019050611ee9565b838801955050505b50505092915050565b6000611f258284611e96565b915081905092915050565b6000604082019050611f456000830185611076565b611f52602083018461111f565b9392505050565b7f55534443207061796f7574206661696c65640000000000000000000000000000600082015250565b6000611f8f601283611090565b9150611f9a82611f59565b602082019050919050565b60006020820190508181036000830152611fbe81611f82565b9050919050565b6000611fd082611115565b9150611fdb83611115565b9250828203905081811115611ff357611ff2611aa8565b5b92915050565b7f5553444320286475616c29207061796f7574206661696c656400000000000000600082015250565b600061202f601983611090565b915061203a82611ff9565b602082019050919050565b6000602082019050818103600083015261205e81612022565b9050919050565b600060208201905061207a600083018461111f565b9291505056fea2646970667358221220b98604735a6cf989860f8dfdbf81b836cac38fe1b24dbe3b3cd41516084bf7fa64736f6c63430008140033",
  "linkReferences": {},
  "deployedLinkReferences": {}
}