{
  "_format": "hh-sol-artifact-1",
  "contractName": "TipperJar",
  "sourceName": "contracts/TipperJar.sol",
  "abi": [
    {
      "inputs": [
        {
          "internalType": "address",
          "name": "_escrow",
          "type": "address"
        }
      ],
      "stateMutability": "nonpayable",
      "type": "constructor"
    },
    {
      "anonymous": false,
      "inputs": [
        {
          "indexed": true,
          "internalType": "address",
          "name": "user",
          "type": "address"
        },
        {
          "indexed": false,
          "internalType": "uint256",
          "name": "amount",
          "type": "uint256"
        }
      ],
      "name": "Deposited",
      "type": "event"
    },
    {
      "anonymous": false,
      "inputs": [
        {
          "indexed": true,
          "internalType": "address",
          "name": "admin",
          "type": "address"
        },
        {
          "indexed": false,
          "internalType": "uint256",
          "name": "amount",
          "type": "uint256"
        }
      ],
      "name": "EmergencyWithdrawn",
      "type": "event"
    },
    {
      "anonymous": false,
      "inputs": [
        {
          "indexed": true,
          "internalType": "address",
          "name": "from",
          "type": "address"
        },
        {
          "indexed": false,
          "internalType": "string",
          "name": "twitterHandle",
          "type": "string"
        },
        {
          "indexed": false,
          "internalType": "uint256",
          "name": "amount",
          "type": "uint256"
        }
      ],
      "name": "TipSentViaJar",
      "type": "event"
    },
    {
      "anonymous": false,
      "inputs": [
        {
          "indexed": true,
          "internalType": "address",
          "name": "user",
          "type": "address"
        },
        {
          "indexed": false,
          "internalType": "uint256",
          "name": "amount",
          "type": "uint256"
        }
      ],
      "name": "Withdrawn",
      "type": "event"
    },
    {
      "inputs": [],
      "name": "deposit",
      "outputs": [],
      "stateMutability": "payable",
      "type": "function"
    },
    {
      "inputs": [],
      "name": "emergencyWithdraw",
      "outputs": [],
      "stateMutability": "nonpayable",
      "type": "function"
    },
    {
      "inputs": [],
      "name": "escrow",
      "outputs": [
        {
          "internalType": "address",
          "name": "",
          "type": "address"
        }
      ],
      "stateMutability": "view",
      "type": "function"
    },
    {
      "inputs": [
        {
          "internalType": "address",
          "name": "",
          "type": "address"
        }
      ],
      "name": "jarBalances",
      "outputs": [
        {
          "internalType": "uint256",
          "name": "",
          "type": "uint256"
        }
      ],
      "stateMutability": "view",
      "type": "function"
    },
    {
      "inputs": [],
      "name": "owner",
      "outputs": [
        {
          "internalType": "address",
          "name": "",
          "type": "address"
        }
      ],
      "stateMutability": "view",
      "type": "function"
    },
    {
      "inputs": [
        {
          "internalType": "address",
          "name": "from",
          "type": "address"
        },
        {
          "internalType": "string",
          "name": "twitterHandle",
          "type": "string"
        },
        {
          "internalType": "uint256",
          "name": "amount",
          "type": "uint256"
        }
      ],
      "name": "tipFromJarFor",
      "outputs": [],
      "stateMutability": "nonpayable",
      "type": "function"
    },
    {
      "inputs": [
        {
          "internalType": "uint256",
          "name": "amount",
          "type": "uint256"
        }
      ],
      "name": "withdraw",
      "outputs": [],
      "stateMutability": "nonpayable",
      "type": "function"
    },
    {
      "stateMutability": "payable",
      "type": "receive"
    }
  ],
  "bytecode": "0x60806040523480156200001157600080fd5b506040516200141638038062001416833981810160405281019062000037919062000129565b336000806101000a81548173ffffffffffffffffffffffffffffffffffffffff021916908373ffffffffffffffffffffffffffffffffffffffff16021790555080600160006101000a81548173ffffffffffffffffffffffffffffffffffffffff021916908373ffffffffffffffffffffffffffffffffffffffff160217905550506200015b565b600080fd5b600073ffffffffffffffffffffffffffffffffffffffff82169050919050565b6000620000f182620000c4565b9050919050565b6200010381620000e4565b81146200010f57600080fd5b50565b6000815190506200012381620000f8565b92915050565b600060208284031215620001425762000141620000bf565b5b6000620001528482850162000112565b91505092915050565b6112ab806200016b6000396000f3fe6080604052600436106100745760003560e01c8063a605a6a21161004e578063a605a6a2146101a1578063d0e30db0146101de578063db2e21bc146101e8578063e2fdcc17146101ff5761011f565b806323b035bd146101245780632e1a7d4d1461014d5780638da5cb5b146101765761011f565b3661011f5734600260003373ffffffffffffffffffffffffffffffffffffffff1673ffffffffffffffffffffffffffffffffffffffff16815260200190815260200160002060008282546100c89190610aaf565b925050819055503373ffffffffffffffffffffffffffffffffffffffff167f2da466a7b24304f47e87fa2e1e5a81b9831ce54fec19055ce277ca2f39ba42c4346040516101159190610af2565b60405180910390a2005b600080fd5b34801561013057600080fd5b5061014b60048036038101906101469190610c06565b61022a565b005b34801561015957600080fd5b50610174600480360381019061016f9190610c7a565b6104fd565b005b34801561018257600080fd5b5061018b610716565b6040516101989190610cb6565b60405180910390f35b3480156101ad57600080fd5b506101c860048036038101906101c39190610cd1565b61073a565b6040516101d59190610af2565b60405180910390f35b6101e6610752565b005b3480156101f457600080fd5b506101fd61083b565b005b34801561020b57600080fd5b50610214610a50565b6040516102219190610cb6565b60405180910390f35b6000811161026d576040517f08c379a000000000000000000000000000000000000000000000000000000000815260040161026490610d5b565b60405180910390fd5b80600260008673ffffffffffffffffffffffffffffffffffffffff1673ffffffffffffffffffffffffffffffffffffffff1681526020019081526020016000205410156102ef576040517f08c379a00000000000000000000000000000000000000000000000000000000081526004016102e690610dc7565b60405180910390fd5b80600260008673ffffffffffffffffffffffffffffffffffffffff1673ffffffffffffffffffffffffffffffffffffffff168152602001908152602001600020600082825461033e9190610de7565b925050819055506000600160009054906101000a900473ffffffffffffffffffffffffffffffffffffffff1673ffffffffffffffffffffffffffffffffffffffff16828585604051602401610394929190610e68565b6040516020818303038152906040527fa814c8c3000000000000000000000000000000000000000000000000000000007bffffffffffffffffffffffffffffffffffffffffffffffffffffffff19166020820180517bffffffffffffffffffffffffffffffffffffffffffffffffffffffff838183161783525050505060405161041e9190610efd565b60006040518083038185875af1925050503d806000811461045b576040519150601f19603f3d011682016040523d82523d6000602084013e610460565b606091505b50509050806104a4576040517f08c379a000000000000000000000000000000000000000000000000000000000815260040161049b90610f60565b60405180910390fd5b8473ffffffffffffffffffffffffffffffffffffffff167f825d7401d36f8bf6f133b06e677fc5e8b218c475b58a86ac440061800e25cd868585856040516104ee93929190610f80565b60405180910390a25050505050565b60008111610540576040517f08c379a000000000000000000000000000000000000000000000000000000000815260040161053790610ffe565b60405180910390fd5b80600260003373ffffffffffffffffffffffffffffffffffffffff1673ffffffffffffffffffffffffffffffffffffffff1681526020019081526020016000205410156105c2576040517f08c379a00000000000000000000000000000000000000000000000000000000081526004016105b990610dc7565b60405180910390fd5b80600260003373ffffffffffffffffffffffffffffffffffffffff1673ffffffffffffffffffffffffffffffffffffffff16815260200190815260200160002060008282546106119190610de7565b9250508190555060003373ffffffffffffffffffffffffffffffffffffffff168260405161063e90611044565b60006040518083038185875af1925050503d806000811461067b576040519150601f19603f3d011682016040523d82523d6000602084013e610680565b606091505b50509050806106c4576040517f08c379a00000000000000000000000000000000000000000000000000000000081526004016106bb906110a5565b60405180910390fd5b3373ffffffffffffffffffffffffffffffffffffffff167f7084f5476618d8e60b11ef0d7d3f06914655adb8793e28ff7f018d4c76d505d58360405161070a9190610af2565b60405180910390a25050565b60008054906101000a900473ffffffffffffffffffffffffffffffffffffffff1681565b60026020528060005260406000206000915090505481565b60003411610795576040517f08c379a000000000000000000000000000000000000000000000000000000000815260040161078c90611111565b60405180910390fd5b34600260003373ffffffffffffffffffffffffffffffffffffffff1673ffffffffffffffffffffffffffffffffffffffff16815260200190815260200160002060008282546107e49190610aaf565b925050819055503373ffffffffffffffffffffffffffffffffffffffff167f2da466a7b24304f47e87fa2e1e5a81b9831ce54fec19055ce277ca2f39ba42c4346040516108319190610af2565b60405180910390a2565b60008054906101000a900473ffffffffffffffffffffffffffffffffffffffff1673ffffffffffffffffffffffffffffffffffffffff163373ffffffffffffffffffffffffffffffffffffffff16146108c9576040517f08c379a00000000000000000000000000000000000000000000000000000000081526004016108c09061117d565b60405180910390fd5b600047905060008111610911576040517f08c379a0000000000000000000000000000000000000000000000000000000008152600401610908906111e9565b60405180910390fd5b60008060009054906101000a900473ffffffffffffffffffffffffffffffffffffffff1673ffffffffffffffffffffffffffffffffffffffff168260405161095890611044565b60006040518083038185875af1925050503d8060008114610995576040519150601f19603f3d011682016040523d82523d6000602084013e61099a565b606091505b50509050806109de576040517f08c379a00000000000000000000000000000000000000000000000000000000081526004016109d590611255565b60405180910390fd5b60008054906101000a900473ffffffffffffffffffffffffffffffffffffffff1673ffffffffffffffffffffffffffffffffffffffff167f2e39961a70a10f4d46383948095ac2752b3ee642a7c76aa827410aaff08c2e5183604051610a449190610af2565b60405180910390a25050565b600160009054906101000a900473ffffffffffffffffffffffffffffffffffffffff1681565b6000819050919050565b7f4e487b7100000000000000000000000000000000000000000000000000000000600052601160045260246000fd5b6000610aba82610a76565b9150610ac583610a76565b9250828201905080821115610add57610adc610a80565b5b92915050565b610aec81610a76565b82525050565b6000602082019050610b076000830184610ae3565b92915050565b600080fd5b600080fd5b600073ffffffffffffffffffffffffffffffffffffffff82169050919050565b6000610b4282610b17565b9050919050565b610b5281610b37565b8114610b5d57600080fd5b50565b600081359050610b6f81610b49565b92915050565b600080fd5b600080fd5b600080fd5b60008083601f840112610b9a57610b99610b75565b5b8235905067ffffffffffffffff811115610bb757610bb6610b7a565b5b602083019150836001820283011115610bd357610bd2610b7f565b5b9250929050565b610be381610a76565b8114610bee57600080fd5b50565b600081359050610c0081610bda565b92915050565b60008060008060608587031215610c2057610c1f610b0d565b5b6000610c2e87828801610b60565b945050602085013567ffffffffffffffff811115610c4f57610c4e610b12565b5b610c5b87828801610b84565b93509350506040610c6e87828801610bf1565b91505092959194509250565b600060208284031215610c9057610c8f610b0d565b5b6000610c9e84828501610bf1565b91505092915050565b610cb081610b37565b82525050565b6000602082019050610ccb6000830184610ca7565b92915050565b600060208284031215610ce757610ce6610b0d565b5b6000610cf584828501610b60565b91505092915050565b600082825260208201905092915050565b7f546970206d757374206265203e20300000000000000000000000000000000000600082015250565b6000610d45600f83610cfe565b9150610d5082610d0f565b602082019050919050565b60006020820190508181036000830152610d7481610d38565b9050919050565b7f496e73756666696369656e74206a61722062616c616e63650000000000000000600082015250565b6000610db1601883610cfe565b9150610dbc82610d7b565b602082019050919050565b60006020820190508181036000830152610de081610da4565b9050919050565b6000610df282610a76565b9150610dfd83610a76565b9250828203905081811115610e1557610e14610a80565b5b92915050565b82818337600083830152505050565b6000601f19601f8301169050919050565b6000610e478385610cfe565b9350610e54838584610e1b565b610e5d83610e2a565b840190509392505050565b60006020820190508181036000830152610e83818486610e3b565b90509392505050565b600081519050919050565b600081905092915050565b60005b83811015610ec0578082015181840152602081019050610ea5565b60008484015250505050565b6000610ed782610e8c565b610ee18185610e97565b9350610ef1818560208601610ea2565b80840191505092915050565b6000610f098284610ecc565b915081905092915050565b7f4156415820666f727761726420746f20457363726f77206661696c6564000000600082015250565b6000610f4a601d83610cfe565b9150610f5582610f14565b602082019050919050565b60006020820190508181036000830152610f7981610f3d565b9050919050565b60006040820190508181036000830152610f9b818587610e3b565b9050610faa6020830184610ae3565b949350505050565b7f5769746864726177206d757374206265203e2030000000000000000000000000600082015250565b6000610fe8601483610cfe565b9150610ff382610fb2565b602082019050919050565b6000602082019050818103600083015261101781610fdb565b9050919050565b50565b600061102e600083610e97565b91506110398261101e565b600082019050919050565b600061104f82611021565b9150819050919050565b7f5769746864726177206661696c65640000000000000000000000000000000000600082015250565b600061108f600f83610cfe565b915061109a82611059565b602082019050919050565b600060208201905081810360008301526110be81611082565b9050919050565b7f4465706f736974206d757374206265203e203000000000000000000000000000600082015250565b60006110fb601383610cfe565b9150611106826110c5565b602082019050919050565b6000602082019050818103600083015261112a816110ee565b9050919050565b7f4e6f7420617574686f72697a6564000000000000000000000000000000000000600082015250565b6000611167600e83610cfe565b915061117282611131565b602082019050919050565b600060208201905081810360008301526111968161115a565b9050919050565b7f4e6f7468696e6720746f20776974686472617700000000000000000000000000600082015250565b60006111d3601383610cfe565b91506111de8261119d565b602082019050919050565b60006020820190508181036000830152611202816111c6565b9050919050565b7f456d657267656e6379207769746864726177206661696c656400000000000000600082015250565b600061123f601983610cfe565b915061124a82611209565b602082019050919050565b6000602082019050818103600083015261126e81611232565b905091905056fea264697066735822122020629304fe30ef62b9d8f0e478faa5e7dc9abfeda034c1507a529196d00e9aac64736f6c63430008140033",
  "linkReferences": {},
  "deployedLinkReferences": {}
}